:020000040801F1
:10200000F8AF002055220108C5F4020875DF010869
:102010003DF30208E55E0108E164030800000000EA
:10202000000000000000000000000000F92C030880
:10203000F1CB0108000000009DFC0208A94503083F
:102040006F2201086F2201086F2201086F22010828
:102050006F2201086F2201086F2201086F22010818
:102060006F2201086F2201086F220108D1C6010802
:102070006F2201086F2201086F2201086F220108F8
:102080006F2201086F2201086F2201086F220108E8
:102090006F2201086F2201086F2201086F220108D8
:1020A0006F2201086F2201086F2201086F220108C8
:1020B0006F220108114D03086F2201086F220108E9
:1020C0006F2201086F2201086F2201086F220108A8
:1020D0006F220108ED6203086F2201086F220108D8
:1020E00025D501086F2201086F2201086F2201081F
:1020F0006F2201086F2201086F2201086F22010878
:102100006F2201086F220108354D03086F22010874
:10211000316103086F2201086F2201086F22010854
:102120006F2201086F2201086F2201086F22010847
:1021300000F002F800F07CF80AA090E8000C82445D
:102140008344AAF10107DA4501D100F071F8AFF23A
:10215000090EBAE80F0013F0010F18BFFB1A43F085
:1021600001031847A0CC0400C0CC040010F8013BC8
:102170000A4413F0030408BF10F8014B1D1108BFF7
:1021800010F8015B641E05D010F8016B641E01F8A5
:10219000016BF9D1002D15D010F8014B03F00C03A1
:1021A0000C2BA1EB04040ABF10F8013BA4EB831431
:1021B000A4EB032405F1010314F8016B5B1E01F885
:1021C000016BF9D5914238BF10F8013BD1D370476C
:1021D0000023002400250026103A28BF78C1FBD830
:1021E000520728BF30C148BF0B60704766293AF0DC
:1021F000FD84642900F0B280632900F0728673299F
:1022000000F07786002070471FB53AF0E2FC00F03E
:1022100019FF04000020002139F016FF401C606007
:102220000020002139F026FFE0601FBD10B510BD71
:1022300001F03AF81146FFF7E7FF34F0A7FE01F08E
:10224000D5FA03B4FFF7F2FF03BC01F003FD000071
:1022500040BA70470948804709480047FEE7FEE753
:10226000FEE7FEE7FEE7FEE7FEE7FEE7FEE7FEE746
:1022700004480549054A064B70470000C547030856
:1022800031210108F89B0020F8AF0020F89F0020C2
:10229000F89F00200FB41CB5074B06AA7B44694683
:1022A0000090059800F0FBFD0020694600F00AFE52
:1022B0001CBC5DF814FB0000250C000070B5044642
:1022C00085690068C10601D5302600E02026C007D8
:1022D00007D070BDD4E9012130469047206A401CE8
:1022E00020626D1EF6D570BD70B504468569007814
:1022F000C00707D170BDD4E9012120209047206A92
:10230000401C20626D1EF6D570BD70B50C460546AA
:10231000012A05D02878800600D5EA69002302E06A
:10232000012305E05B1C934202D2E05C0028F9D156
:10233000A869E618C01AA861286A184428622846C5
:10234000FFF7BCFF04E0D5E9012114F8010B904729
:10235000B442F8D32846FFF7C7FF70BD2DE9F0411E
:102360000646002410687529314616A510D0AFF333
:102370000080002802DA404213A507E031688A078E
:1023800001D512A502E0490704D511A5012401E0F9
:10239000AFF3008000210A2206F1240709E0B0FB18
:1023A000F2FCB0FBF2F302FB1C003030785418460C
:1023B000491C0028F3D123462A463046BDE8F041A7
:1023C00000F0FFBA000000002D0000002B0000000C
:1023D000200000002DE9F05F894604464FF0000A16
:1023E000DFF824B1FB44C0F820A02046E16888470C
:1023F00000287DD0252806D0D4E901219047206A05
:10240000401C2062F1E700255F462046E1688847CE
:102410002028064607DB312E05D2B81910F8200C0B
:1024200008B10543F1E7A80701D525F00405C4F874
:102430001CA00027C4F818A02A2E09D0304624F08A
:1024400062FD38B304EB8708303EC8F8186019E025
:1024500059F8041B204604EB87029161E168884724
:10246000012F064618D1E069002820DA25F0200562
:102470001DE0D8F8180000EB800006EB4000303873
:10248000C8F818002046E1688847064624F03BFD5E
:102490000028EED1012F0AD02E2E08D12046E16867
:1024A00088477F1C0646022F45F02005C4DBA06943
:1024B000002803DA404245F00105A061E80701D099
:1024C00025F01005A6B1A6F14100192802D8203642
:1024D00045F400654A463146204625604D46FFF7E3
:1024E00085FE60B1012807D0ED1D25F0070000E052
:1024F00007E000F1080978E705F1040975E73046BF
:102500007AE7206ABDE8F09F36C9040070B5064638
:1025100000F048FA0468054630460A22002100F01F
:1025200002F82C6070BD2DE9F04791460F468046B9
:102530000446002614F8015B2DB100F02BFA006868
:10254000405DC007F6D12B2D02D02D2D18D0641E72
:102550004A463946204600F0D0FC27B13968A142EE
:1025600001D1C7F800804FF0020471050BD540423D
:10257000002803DD00F016FA0460A007BDE8F0872C
:1025800046F48066E4E70028F8DA00F00BFA04600D
:102590006FF00040F2E740EA010310B59B070FD14E
:1025A000042A0DD310C808C9121F9C42F8D020BAC3
:1025B00019BA884201D9012010BD4FF0FF3010BD7B
:1025C0001AB1D30703D0521C07E0002010BD10F849
:1025D000013B11F8014B1B1B07D110F8013B11F80F
:1025E000014B1B1B01D1921EF1D1184610BD40EAD0
:1025F0000103024630B59B0710D14FF0013400E0D3
:1026000008C208C91D1B9D4315EAC41FF8D013F06A
:10261000FF0102F8011B0DD01B0AF8E711F8013B7E
:10262000002B02F8013B05D011F8013B002B02F80A
:10263000013BF3D130BD10B5431C02E010F8011B83
:1026400071B18107FAD14FF0013202C88C1A8C4364
:1026500014EAC211F9D0C01A0A0603D0C01E10BD78
:10266000C01A10BD0A0401D0801E10BD0902FCD0A2
:10267000401E10BDCBB22AB101788B4203D0401C62
:10268000521EF9D10020704740EA010370B59B0744
:102690002ED14FF00136042A2AD308C810C99D1B39
:1026A0009D43121F15EAC61517D0D8B2E1B2401AE1
:1026B00050EA056110D198B2A1B2401A50EA054122
:1026C0000AD123F07F4024F07F41401A50EA0521CF
:1026D00002D1180EA0EB146070BDA342DBD018BA73
:1026E00021BA884201D9012070BD4FF0FF3070BD82
:1026F0000AB9002070BD10F8013B11F8014B63B11D
:10270000A3420AD1521E08D010F8013B11F8014B28
:102710001BB1A34201D1521EEDD1181B70BD421E48
:1027200012F8013F002BFBD111F8013B002B02F8FE
:10273000013BF9D17047032A40F2308010F0030CBE
:1027400000F0158011F8013BBCF1020F624498BF04
:1027500011F801CB00F8013B38BF11F8013BA2F1A1
:10276000040298BF00F801CB38BF00F8013B11F01C
:10277000030300F02580083AC0F0088051F8043BBC
:10278000083A51F804CBA0E80810F5E7121D5CBF29
:1027900051F8043B40F8043BAFF30080D20724BF5C
:1027A00011F8013B11F801CB48BF11F8012B24BFF0
:1027B00000F8013B00F801CB48BF00F8012B70473F
:1027C00010B5203AC0F00B80B1E81850203AA0E8CC
:1027D0001850B1E81850A0E81850BFF4F5AF5FEA00
:1027E000027C24BFB1E81850A0E8185044BF18C9B3
:1027F00018C0BDE810405FEA827C24BF51F8043B5A
:1028000040F8043B08BF7047D20728BF31F8023BAD
:1028100048BF11F8012B28BF20F8023B48BF00F841
:10282000012B70474FF000020429C0F0128010F015
:10283000030C00F01B80CCF1040CBCF1020F18BF9C
:1028400000F8012BA8BF20F8022BA1EB0C0100F02F
:102850000DB85FEAC17C24BF00F8012B00F8012B02
:1028600048BF00F8012B70474FF0000200B5134637
:1028700094469646203922BFA0E80C50A0E80C50A0
:10288000B1F12001BFF4F7AF090728BFA0E80C5051
:1028900048BF0CC05DF804EB890028BF40F8042B4A
:1028A00008BF704748BF20F8022B11F0804F18BFB7
:1028B00000F8012B704710B5044610F0030F08BF55
:1028C00011F0030F40F015804FF0013E121FC0F2CF
:1028D0000E8051F8043BA3EB0E0C2CEA030C1CEA0F
:1028E000CE1C08BF40F8043BF0D0A1F1040102F176
:1028F0000402521E08DB11F8013B002B00F8013BDB
:10290000F7D11146FFF78EFF204610BD4FF0013C76
:1029100050F8042B51F8043B9A4221D1A2EB0C034E
:10292000934313EACC1317D150F8042B51F8043B0E
:102930009A4215D1A2EB0C03934313EACC130BD1AB
:1029400050F8042B51F8043B9A4209D1A2EB0C0336
:10295000934313EACC13DBD04FF00000704700BF65
:10296000D01A01BAB1FA81F101F0180122FA01F08E
:10297000CB40C1F12001DBB2C0B2C01A2CFA01F386
:10298000D11A914311EAC311E6D1704770477047DD
:102990007047000010B500F055FB001D10BD00BFD2
:1029A000A996030000487047989B002010B5FFF7D8
:1029B000F9FF006810BD10B50446FFF7F3FF04608F
:1029C00010BD2DE9F0470D4699469246044600F1A8
:1029D00024080168880604D5E06921F0100121600F
:1029E00000E00120A84201DD471B00E00027A169AB
:1029F0007A1902EB0900081AA0612078C00602D4F7
:102A00002046FFF75BFC002608E0D4E901211AF814
:102A100006009047206A401C761C20624E45F4DB7D
:102A20002078C0060AD52046FFF748FC06E0D4E926
:102A3000012130209047206A401C2062381EA7F1F7
:102A40000107F4DC07E0D4E9012118F805009047FC
:102A5000206A401C2062281EA5F10105F3DC2046F7
:102A6000FFF742FC2078000602D50220BDE8F0877F
:102A70000120FBE770472DE9FF4F0C461E464FF043
:102A8000FF378BB0D2E90001DDF860800A908A46FA
:102A9000C1F30A5505B93D46002108464FF0000034
:102AA000BAF1000F00F4400005DA00EB80004FF4AB
:102AB000400101EA50004FEA9059B9F1010F00DDE1
:102AC000B9460A9850EA4A000ED044F61050A5F2D2
:102AD000FF3545432F14B8F1000F1ED07542291E53
:102AE0001EDDC9F100021CE0B8F1010F4FF000003B
:102AF00001D0302103E0F24305E02154401CB042F4
:102B0000FBDB30460022002121540B99C1F80880DC
:102B1000C1E900200FB0BDE8F08FBD1B6D1CDEE7E2
:102B20004A4600DA694206A800F04CFB06AB93E87F
:102B3000070003AB83E8070050460A9901F0A4F8A8
:102B40008DE80700A0F500501F3800900398002D75
:102B50000ADD42F21F014A460844002303A90390FC
:102B6000684601F04FFB09E0A0F500504A461F38C7
:102B7000002303A90390684601F06EFB8DE807006F
:102B80000004000C03D04FF0FF30410800E0104675
:102B9000B8F1000F03D00022009215461EE0751E0A
:102BA00005D400F053FA303262556D1EF9D5B346A4
:102BB0000122084302D000227F1C04E02078302844
:102BC00001D100227F1E002A099784D01DE0112D1B
:102BD00007DA00F03BFA303262556D1C50EA010210
:102BE000F5D1084302D00098C8B10EE00021681E5C
:102BF00005E0235C625C63542254401E491C814200
:102C0000F7DBAB46A81B401E0990002004F80B0020
:102C10000B98099AC0F80880C0E9002B7AE71126C2
:102C20004FF0000857E72DE9F04F88460446D21DC3
:102C300022F0070191B0D1E90001CDE90A0124F0A9
:102C400016F802460B98C00F01D02D2007E020682F
:102C5000810701D52B2002E0202101EAC000032AD0
:102C6000099001D0072A05DB03464146204600F0C3
:102C70003BFA0BE12078800601D5E06900E00620F0
:102C8000B8F1650F814606D0B8F1660F18D0B8F1DB
:102C9000670F70D131E00020B9F1110F009001DB16
:102CA000112301E009F101030AAA01A90CA8FFF709
:102CB000E2FEDDE90C70002609F10105834647E0DC
:102CC00001204B4600904FF000470AAA01A90CA82A
:102CD000FFF7D1FEDDE90DB00C995D46002610B975
:102CE00009F101000D18B9EB050003D4C0F1FF365E
:102CF00009F10105A5EB09002BE0B9F1010F01DA9B
:102D00004FF001090020B9F1110F0090484601DD94
:102D1000112300E003460AAA01A90CA8FFF7ABFEA5
:102D2000DDE90C704D4600268346207800070AD462
:102D3000AB4500DA5D4601A8012D04DD411911F80B
:102D4000011C302907D04F4502DA17F1040F04DACD
:102D5000012082460FE06D1EEEE7002F02DCED1B26
:102D60003E4403E0781CA84200DD7D1CB81B00F146
:102D7000010A4FF000472078000703D4AA4501DB81
:102D80004FF0FF3A0021B7F1004F0DF143088DF8E5
:102D9000431024D002202B23002F01DA7F422D2361
:102DA0000A21021EA0F1010000DC5FB197FBF1FCDB
:102DB00097FBF1F201FB1C7C17460CF1300C08F874
:102DC00001CDEEE7A8F1010003702188090501D5C6
:102DD000452100E06521A0F1010800F8011C0998D7
:102DE0000FA9A1EB0807FF1D00B10120411901EB5C
:102DF000EA70A1693844081A401EA0612078C00614
:102E000002D42046FFF75AFA099828B1D4E90121E3
:102E10009047206A401C20622078C00622D52046B8
:102E2000FFF74CFA1EE0002E04DBB34502DD01A8DB
:102E3000805D00E03020D4E901219047206A401CE9
:102E40002062761CAAF101005FEA000A0AD100F0B4
:102E5000F9F8C0680168405CD4E901219047206A14
:102E6000401C2062281EA5F10105DCDC07E0D4E946
:102E7000012118F8010B9047206A401C2062381E7F
:102E8000A7F10107F3DC2046FFF72EFA032011B06B
:102E900041E6000001694A1C02610878704700B5EC
:102EA0008FB0CDE901310021059105497944CDE983
:102EB000031011466846FFF78DFA0FB000BD000001
:102EC000E5FFFFFF0A6802F8010B0A60704710B5C2
:102ED000436913B1AFF3008001E0FFF716FA012058
:102EE00010BD127800F124010A7000224A700122FC
:102EF000EDE711684FF0FF32E9E72DE9F05F824618
:102F000015468B4600270AF10104B946007830289F
:102F100001D09DB113E014F8010B0127782803D0EC
:102F2000582801D045B10AE00DB1102D07D1002776
:102F300014F8010B102502E0082500E00A25002600
:102F4000B0460EE005FB080005FB06F101271FFA5D
:102F500080F801EB1046B6F5803F00D3B94614F86F
:102F6000010B294600F000F90028EBDABBF1000F55
:102F700005D00FB1641E00E05446CBF80040B9F113
:102F8000000F06D0FFF70EFD02210160C81EBDE84C
:102F9000F09F48EA0640FAE70FB4002300B589B075
:102FA0000CA900910B99CB60214B7B440693214BDC
:102FB0007B44079304236FF00042CDE901321E4A9F
:102FC0007A446B4608920246002039F071FE09B03F
:102FD0005DF814FB70B506464FF0FF3015460C4601
:102FE000324686B00091CDE9010169460020049087
:102FF00004A8FFF7D1FF02460498211825B108B1B3
:10300000084600E020462860049800280DD0002AD9
:1030100002DD0098884208D03246081B69460094B9
:10302000CDE9010404A8FFF7B7FF06B070BD0000AA
:10303000D7010000EF0100001301000000487047B5
:10304000989B002000487047B89B002030B5B0F135
:103050000A024FEA900E71F100034EEA817EB0EB56
:103060000E0061EB91014FEA101E4EEA017E10EB5B
:103070000E0041EB11114FEA102E4EEA016E10EBDB
:103080000E0041EB11214FEA104E4EEA014E10EBBB
:103090000E0041EB1141401841F100014FEAD00010
:1030A00040EA41704FEAD10110EB80054FEA8104FC
:1030B00044EA907444EB01046D1944EB0404521B80
:1030C000A3414FF0000348BF0A3200D530BD401C79
:1030D00041F1000130BD10B50446FFF75BFC00680C
:1030E000005D00F0010010BD2DE9F0411F460446CF
:1030F00003260168072A01F4006004DB08B116A565
:1031000005E016A503E008B115A500E015A521F01E
:1031100010002060A069C01EA0610FB1401EA06118
:103120002046FFF7CBF84FB1D4E90121384690474C
:10313000206A401C2062C01C206206E0206AFAE778
:10314000D4E9012115F8010B9047761EF8D22046EC
:10315000FFF7CAF8BDE8F0814E414E006E616E0087
:10316000494E4600696E66003A2800D2303820F099
:103170002002412A01D3A2F13700884201D34FF047
:10318000FF307047426842B1016811F8013B23B13A
:10319000521EC0E90012184670470121C160881E06
:1031A000704742685AB1C368016843B983688B426B
:1031B00005D0491E521CC0E90012002070474FF094
:1031C000FF3070472DE9F047814616468AB03548F2
:1031D00078440DC88DE80D0032487844801C03AC5B
:1031E0000DC884E80D0041F69B300844372190FB60
:1031F000F1F290FBF1F5A5F1800501FB12041B3CF7
:1032000002D56442012000E00020DFF898A080464B
:103210000027FA44AAF1BE0A0EE0E0070AD03246BF
:10322000684607EB470101230AEB810101F014F81E
:103230008DE8070064107F1C002CEED1194F7F44ED
:10324000AE3F19E0E80715D007EB04100DF1180A9E
:1032500090E80E008AE80E00C068F04201D198198B
:1032600008903246012306A903A800F0F5FF03AB3E
:1032700083E807006D10641C002DE3D14FF00103BB
:1032800032466946B8F1000F03A802D000F0BAFF39
:1032900001E000F0E1FFC9E90001C9F808200AB027
:1032A000BDE8F087D8BB04007546FFF7C7FEAE4601
:1032B00005006946534620F00700854618B020B542
:1032C000FEF7D6FFBDE820404FF000064FF00007A4
:1032D0004FF000084FF0000B21F00701AC46ACE8BE
:1032E000C009ACE8C009ACE8C009ACE8C0098D462B
:1032F000704700002DE9FF4F06468BB00878FF2885
:1033000006D0491C2D2805D000244FF0000908E004
:1033100000200CE00124F8E709EB8903491C00EBCD
:1033200043090878FF28F7D114B1C9F1000081469C
:10333000107800252C46AA4629462D2801D02B2896
:1033400004D1521C2D2813D0002082468B461078C1
:10335000FF280FD04FF0000C0A21521CA5FB01786A
:1033600004FB018105FB0C11C5194BEB0104EEE7D1
:103370000120EAE7002108464FF00000BAF1000FF3
:1033800002D000EB80004008C0F38157012F01DD1F
:103390004FF0FF370E9955EA040009EB01080BD0F6
:1033A0004FF0020918F5FA7F16DA4FEACA70002FBB
:1033B000706008DD012007E04FEACA70C6E900B07E
:1033C0000FB0BDE8F08F00203060FFF7EBFAC0F8D7
:1033D00000901821084616E0B8F5FA7F18DD002F96
:1033E00002DAF748784401E0F6487844D0E9001062
:1033F000C6E9001040EACA707060FFF7D3FAC0F85F
:103400000090142108460FB0BDE8F04F39F0EBBB37
:10341000002108464FF00000B8F10001099002DADF
:10342000C7F1000200E03A4601DAC8F1000106A83F
:10343000FFF7C8FE06AB93E8070003AB83E807007D
:1034400044F23E005BEA04010090584604D144F285
:103450001E012C465D460091210C0904014306D152
:103460000099240444EA15442D041039009104F015
:103470007F41014306D10099240244EA15642D02DC
:103480000839009104F07041014306D100992401EC
:1034900044EA15742D01091F009104F040410143D5
:1034A00006D10099A40044EA9574AD00891E0091EC
:1034B00004F00041084304D100986D196441401E96
:1034C00000904FF001033A466846B8F1000FCDE98D
:1034D000014503A902DD00F0D4FE01E000F0A7FEE3
:1034E000BAF1000F04460D4601D084F000440021DB
:1034F00008464FF00000099940F2FF77484010F06D
:103500000C0F07D124F00040284303D0C4F30A5025
:10351000B84212D1FFF746FAC0F80090C4F30A503F
:10352000B8420AD1A8487844D0E90010C6E9001092
:1035300004F000410843706042E7C6E900543FE7E9
:103540002DE9FF4F1F464FF0000A4FF0FF38454668
:1035500091B0D7E90146CDF83CA0FFF773FDC068F4
:103560000168405C1090B96912986D1C8847396AEF
:10357000814688470028F6D1B9F1FF3F0AD0002ED6
:1035800024F4D06411DDB9F12B0F08D0B9F12D0F5F
:103590000BD102E0404615B013E744F48064B969EA
:1035A00012986D1C8847761E8146600504A901D5D6
:1035B0002D2000E02B20002E01F1010B0DF1300831
:1035C0008DF810003FDDB9F1690F08D0B9F1490F4E
:1035D00005D0B9F16E0F02D0B9F14E0F1CD13B46A8
:1035E00001A8009580E85002DDE912126FF0020098
:1035F00039F062FBC11CCED10EE0B96912986D1C86
:10360000884781461398761E44F4007405600F982D
:10361000401C002E0F9016DDB9F1300FEDD0B9F13E
:10362000780F02D0B9F1580F0DD10F9801280AD1A7
:103630003B46CDE90054DDE91212001F029639F035
:1036400039FBC11CA7D1109989453ED144F08004B3
:1036500006E01399681CAAF1010A44F4007408609A
:10366000B9696D1C1298761E884730288146F0D0C3
:103670002BE01099894505D1200603D4761E44F02D
:10368000800418E0484623F03EFC08B3761E0DF196
:1036900023018B4544F4007408D2A9F130000BF8E3
:1036A000010B200607D5AAF1010003E0200602D491
:1036B0000AF101008246A00502D51399681C086032
:1036C000B96912986D1C88478146002ED1DC53E001
:1036D000002E51DDB9F1650F02D0B9F1450F4BD184
:1036E000A00549D5B9696D1C1298761E24F4407462
:1036F0008847002E81460CDD2B2804D0B9F12D0F10
:1037000007D144F48074B96912986D1C8847761EFD
:103710008146E00501D52D2100E02B2108F8011B91
:10372000CDF8008021E0761E0DF13901884544F482
:1037300000740CD2A9F1300010F0FF0088F80000EE
:1037400002D10099884509D908F1010806E0E00591
:1037500001D51E4801E042F20F708246B969129805
:103760006D1C8847814613980560002E04DD48468D
:1037700023F0C9FB0028D6D1F96912988847FF20A9
:1037800053468BF8000088F8000000200A900B9048
:1037900004AA0CA90AA8FFF7ADFDA00502D46FF09A
:1037A0000100F8E614F0240F12D0E0071CD13868AD
:1037B000DDE90A12031D3B600068C0E9001213E056
:1037C00044BA040036BA0400FAB80400F1D8FFFF86
:1037D0000AA9684623F084FBE00705D13868009AFF
:1037E000011D3960006802602846D4E610B5044621
:1037F000AFF300802046BDE81040FEF722BD000078
:103800002DE9FF4F1F464FF03C0987B04FF00042B3
:10381000DDE9141001F10108DDF858A002EA40507A
:103820000390002005908346054604460490B9693C
:10383000461E08988847AAF1010A0290BAF1000FC3
:103840003BDD02982E2815D01021FFF78DFC0028B3
:103850002EDB4FF0010B0599014317D0B9F1000F92
:103860000BDB4A46C11700F0FBF905430C43A9F1F5
:10387000040905E0012004900BE008B145F00105C2
:1038800001200590049820B9361D02E0049800B18B
:10389000361FB969089808F101088847BBF1000F85
:1038A000AAF1010A0290C9D00999C1F80080C5E7C0
:1038B0000298702808D0502806D0F96908988847DF
:1038C000BBF1000F14D04FE0002002900120BBF1AB
:1038D000000F049009D0B969089808F101088847D9
:1038E000AAF10109B9F1000F07DCF96908988847C6
:1038F0006FF001000BB0BDE8F08F2B2804D02D280D
:103900000CD14FF0FF300490B969089808F1010814
:103910008847A9F10109B9F1000FE6DD411CE4D0A7
:103920000A21FFF721FC0028DFDB029908F10108DA
:1039300001EB810100EB41000290B96908988847CA
:103940000A21FFF711FC099AA9F10109B9F1000F49
:10395000C2F8008001DD0028E7DAF9690898884795
:103960000499029800FB016655EA040004D004F0B3
:103970004041090002D006E0039898E0A40044EA20
:103980009574AD00B61E04F00041080002D16D1917
:103990006441761E159810F0240F03D04FF00B09E8
:1039A0005C4803E04FF028096FF07D0082465645E1
:1039B00007DAAAEB06018944B9F1410F01DD4FF0A6
:1039C000410901200021A9F1010200F049F9024654
:1039D00028400B462140084301D0012100E000218E
:1039E000501E029143F1FF3128402140084301D08D
:1039F000012000E000200299834651EA0B014FD0DC
:103A0000002108464FF00000039900F4400039B14E
:103A100000EB80004FF4400100EBD07001EA600041
:103A20008015012802DD4FF0FF3000E013D0401C6C
:103A300036D0029860B3BBF1000F0CD14A4601208A
:103A4000002100F00DF928402140084301D0012059
:103A500000E00020E0B101204A46002100F000F91A
:103A6000034640190A4661412D1A8C4111D3B9F120
:103A7000400F09DD159810F0240F02D0AAF134068A
:103A800003E0AAF1170600E0761C00254FF0004481
:103A900006E05B1E42F1FF3220EA030521EA020440
:103AA000CAF10100B04206DA1B49039808430190AD
:103AB000002000900EE0039AC4F3D321E80A0A43E1
:103AC000164940EA44500A433146CDE900026846AF
:103AD00023F00FFA159810F0240F0BD01598C0079B
:103AE00015D13868DDE90012031D3B600068C0E9AC
:103AF00000120CE002A8694623F0F2F91598C007FD
:103B000005D13868029A011D39600068026040469C
:103B1000F0E6000002FCFFFF0000F07F0000F03F35
:103B20002DE9FF4F92461D4685B04FF00041DDE97B
:103B3000124BDDE914727F1E01EA4B50414940F0FF
:103B4000FF4940EA0108002122F0200049280491A1
:103B500002D04E2828D04CE03BA0012607C88DE8B3
:103B60000700A9690698641C88477F1E014606D491
:103B70001DF8060018B121F0200181420BD0E9693F
:103B800006988847032E34D0082E32D06FF00100FB
:103B900009B0BDE8F08F761C032E01D0082EE0D1CD
:103BA000601CCAF80000DCE7A9690698641C884715
:103BB0007F1E2AD420F02000412826D1A96906982A
:103BC000641C88477F1E20D420F020004E281CD182
:103BD000A9690698641C88477F1E48F4002849F4A8
:103BE0008009CAF8004001D4282806D0E96906985F
:103BF00088475FEACB7012D022E0A9690698641C5E
:103C000088477F1E01D4002803DAE96906988847AF
:103C1000BCE72928F1D1641CCAF80040E9E71BF091
:103C2000240F07D028680499031D2B600068C0E9A1
:103C3000001805E02868021D2A600068C0F800909E
:103C40002046A5E70000F07F494E46494E495459A9
:103C50000000000001491820ABBEFEE7260002006C
:103C6000B2F120030AD5C2F1200301FA02F120FAD1
:103C700003F300FA02F041EA0301704700FA03F18E
:103C80004FF00000704770475FEA400C08BF91F0AA
:103C9000000F4FEA8C234FEAC12243EA51514FEA09
:103CA0001C5018BF00F5F0404FEA300018BF41F03B
:103CB00000415FEA6C5C00F02980BCF1FF3F08BF67
:103CC00040F080407047130C06BF12044FF0100CF8
:103CD0004FF0000C130E04BF12020CF1080C130F6E
:103CE00004BF12010CF1040C930F04BF92000CF1FD
:103CF000020CD30F04BF52000CF1010C11464FF01F
:103D00000002A0F11F00A0EB0C00704711F0004F63
:103D100008BF704731F000413FF4D5AF0B0C06BF30
:103D200009044FF0100C4FF0000C0B0E04BF0902F9
:103D30000CF1080C0B0F04BF09010CF1040C8B0FE4
:103D400004BF89000CF1020CCB0F04BF49000CF139
:103D5000010CCCF12003A0EB0C0022FA03F302FAD1
:103D60000CF241EA030100F10100704720F07F4CA2
:103D700080EA030023F07F47ACEB070303F57C5395
:103D800000F0004003F1FF032DE980494FEA154B95
:103D900009B44FEA144325EA0B4E24EA03480FF214
:103DA000042606EB132749083E785FEA320203FB3C
:103DB0000667C7F5000707FB06F64FEA54374FEAD8
:103DC000D64606F1020607FB066CCCF1005C4FEA12
:103DD0001C472CEA074C07FB06F40CFB06F504EB2A
:103DE00015464FEA961634BF00204FF000404FEAC8
:103DF000D13706FB07FC4FEA1C4C0CFB0BF7D21B20
:103E000003FB0CF761EB07010CFB0EF7B0EB07406F
:103E100072EB17420CFB08F734BFA2EB0742B2EB80
:103E2000074261EB17414FEA0C444FEA910706FB4A
:103E300007FC4FEA1C4C0CFB0BF7B0EBC74072EBD6
:103E4000573203FB0CF734BFA2EBC742B2EBC742B9
:103E500061EB57310CFB0EF7B0EBC70072EB5772FA
:103E60000CFB08F734BFA2EBC702B2EBC70261EB51
:103E70005771039F4FEA816141EA921104EBCC0430
:103E80004FEAD1374FEA826206FB07FC42EA901202
:103E90004FEA80604FEA1C4C0CFB0BF7D21B03FB74
:103EA0000CF761EB07010CFB0EF7B0EB074072EB70
:103EB00017420CFB08F734BFA2EB0742B2EB0742F4
:103EC00061EB17414FEA8C554FEA910704EB9C24B4
:103ED00006FB07FC4FEA1C4C0CFB0BF7B0EBC74092
:103EE00072EB573203FB0CF734BFA2EBC742B2EBC5
:103EF000C74261EB57310CFB0EF7B0EBC70072EB1A
:103F000057720CFB08F734BFA2EBC702B2EBC70233
:103F100061EB577115EB4C254FEA816141EA921133
:103F20004FEA82624FEAD13742EA901206FB07FC61
:103F300044F100044FEA80604FEA1C4C0CFB0BF785
:103F4000D21B03FB0CF761EB07010CFB0EF7B0EB88
:103F5000074072EB17420CFB08F734BFA2EB074295
:103F6000B2EB074261EB174115EB1C154FEA8131AB
:103F700041EA92414FEA823242EA90424FEA80306F
:103F80004FEA0C7644F1000448EA03434EEA0B483A
:103F90004FF0000EB2EB080C71EB030724BF624632
:103FA00039464EEB0E0E4FF0000B001852414941BE
:103FB0004BEB0B0BB2EB080C71EB03077BF1000B27
:103FC00024BF624639464EEB0E0E4FF0000B001830
:103FD000524149414BEB0B0BB2EB080C71EB030761
:103FE0007BF1000B24BF624639464EEB0E0E51EAC0
:103FF000020718BF46F0010616EB0E7655F10002D7
:1040000054F1000103D5BDE88901BDE80088BDE891
:104010008901BDE80048B619524141EB0101A3F105
:104020000103704780807F7E7D7C7B7A797877760C
:1040300076757473727171706F6E6E6D6C6C6B6A85
:104040006A69686867666665646463636261616023
:10405000605F5F5E5E5D5D5C5C5B5B5A5A595958A0
:10406000585757565655555554545353525252510A
:10407000515050504F4F4F4E4E4D4D4D4C4C4C4B60
:104080004B4B4A4A4A4949494848484747474746A7
:1040900046464545454444444443434343424242E3
:1040A0004241414146EA0646A3F570534FEA16469F
:1040B00046EA42564FEAD22242EA415210B54FEA4E
:1040C000D121A3F1010300F02FF820F0004000F10E
:1040D000020C00F0004701EB00501146BCF5006FE8
:1040E00040EA070000D210BDBAF1000F0AD01CB59B
:1040F00003B44FF004004FF004014FF000000FBC78
:10410000BDE810404FF00001BBF1010FB9BF0448FA
:104110004FF0FF310348002140EA070010BD00BF07
:10412000FFFFEF7F0000F07F002B9C4630D477002C
:104130002BD01CB54FEA370703B44FF010004FF0F7
:104140001001BAF1000F06D0BCF1000FDCBF40F047
:10415000080040F008014FF000000FBCBDE810401F
:104160000BF1010BBBF1010F08BF5FEA170722BF7C
:1041700012F1010211F101014FF0004143F100037E
:1041800000F0004043EA00007047F9D35708D0E739
:1041900046EA064613F1400F4FEA16461FDD13F1BB
:1041A000200FDFBF16430A46002120335B42BED0FA
:1041B000C3F1200746EA064602FA07F74FEA164619
:1041C00046EA0706C3F1200722FA03F201FA07F7CD
:1041D00021FA03F14FF0000342EA0702A7E746EA9B
:1041E000020646EA06464FEA164646EA0106BCBF04
:1041F00046EA0646360C4FF000034FF000024FF03F
:10420000000194E72DE9804C9A46934670B491E8FA
:10421000380007C831EA400C48BF34EA430C03D5E4
:10422000FFF7A4FDFFF780FFF0BCBDE8008C2DE98F
:10423000804C9A46934670B491E8380007C831EA3A
:10424000400C48BF34EA430C03D5FFF78FFDFFF75E
:1042500029FFF0BCBDE8008C2DE9804C9A469346BE
:1042600070B491E8380007C810F0804F08BF13F011
:10427000804F03D100F01AF8FFF756FFF0BCBDE8FD
:10428000008C2DE9804C9A46934670B491E8380032
:1042900007C810F0804F08BF13F0804F03D100F023
:1042A00005F8FFF7FFFEF0BCBDE8008C20F07F476B
:1042B00080EA030023F07F4C07EB0C03A3F57C534B
:1042C00000F00040A3F1FE0392F0000F00F0B38075
:1042D00095F0000F00F077802DE901494FEA114079
:1042E0004FEA144621EA004800FB06FC24EA064790
:1042F00008FB06F607FB08F800FB07F718EB064873
:104300004CEB164C4FEA124B18EB07484FEA154698
:104310004CEB174022EA0B4E0BFB06FC25EA064746
:104320000EFB06F607FB0EFE0BFB07F71EEB064E19
:104330004CEB164C4FF000061EEB074E4CEB174BA8
:1043400018EB0B0840F1000018EB0E0B58EB0008BF
:1043500040F100008F1A4FF000013CBFC943661BBB
:1043600014BFB5EB040C00213CBFC943F61B4FEA58
:1043700017444EEA8E0E27EA04454FEA1C4704FB19
:1043800007622CEA074C05FB07F70CFB05F604FB5C
:104390000CFC16EB074642EB174216EB0C4642EBC1
:1043A0001C421BEB060658EB0202414146EA9E0600
:1043B00001D5BDE80189B619524141EB0101A3F1D4
:1043C0000103BDE801894FEA14454FEA114724EA89
:1043D000054621EA074C05FB07F406FB07F70CFB33
:1043E00006F105FB0CFC11EB074144EB17444FEAC7
:1043F000124711EB0C4144EB1C4422EA074C05FB2D
:1044000007F206FB07F70CFB06F605FB0CFC16EBA8
:10441000074642EB174216EB0C4642EB1C456A1866
:1044200054F1000148BF7047B619524141EB0101F8
:10443000A3F10103704795F0000F37D04FEA114206
:104440004FEA144721EA024624EA074C02FB07F12F
:1044500006FB07F70CFB06F402FB0CFC14EB07440D
:1044600041EB17414FEA154714EB0C4441EB1C415B
:1044700025EA074C02FB07F506FB07F70CFB06F6DF
:1044800002FB0CFC16EB074645EB174516EB0C46FA
:1044900045EB1C42121951F1000148BF7047B61993
:1044A000524141EB0101A3F1010370474FEA14456A
:1044B0004FEA114724EA054621EA074C05FB07F1BC
:1044C00006FB07F70CFB06F24FF0000605FB0CFCA1
:1044D00012EB074241EB174112EB0C4251EB1C412E
:1044E00048BF7047921841EB0101A3F101037047E7
:1044F00010B500F0C3F800F009F800F043F80248E6
:1045000037F04DFA10BD00000008004000B587B03C
:104510000021194823F0ACF81848009000208DF8CD
:1045200018001748029001208DF8190040020190F0
:104530008000039000208DF81A004FF480700490E2
:104540004FF4405005906A4600210B4823F0DCF8F8
:104550000021094823F073F806220021064823F0C1
:104560006AF9002211460B2032F096FE0021024823
:1045700023F04CF807B000BD000002404C2401407D
:10458000988B002010B53B4822F008FD3A4822F0F5
:1045900005FD01221102374822F0D6FD0122110249
:1045A000354822F0D1FD00220221324822F0CCFD14
:1045B00000220221304822F0C7FD4FF420220121C1
:1045C0002C4822F044FD4FF4602201212A4822F0B9
:1045D0003EFD0021274822F0D5FC0021264822F08C
:1045E000D1FC4FF4C02022F04BFD022201212148D2
:1045F00022F0A5FC022201211F4822F0A0FC042386
:104600000C2200211B4822F049FD04230E22012127
:10461000184822F043FD04230D220021164822F001
:104620003DFD04230F220121134822F037FD012212
:104630001146104822F0ECFC012211460E4822F0EF
:10464000E7FC0C4822F0DBFC0A2022F0C1FF0948FD
:1046500022F060FC084822F0D2FC0A2022F0B8FFC9
:10466000054822F057FC002032F0D2FE014822F02B
:10467000C1FC10BD002401400028014000B587B0F6
:10468000194837F019F9684637F009FA0020ADF8F3
:104690000000ADF8040040F2ED2002900020ADF8DB
:1046A00006006946104837F08BF920210E4837F094
:1046B000DBF90220ADF814000120ADF8100004AAC7
:1046C0000321094836F094FF40F25D1203210648A9
:1046D00037F0B1F870220321034837F07FF8024821
:1046E00037F058F907B000BD000800402DE9F04F41
:1046F000B9B0044687200990FB4832AF4FF00A0951
:104700000EC887E80E00D0E90010CDE93510F64953
:104710004FF0A50B282523264FF0570A3C221431D1
:1047200012A8FEF74DF8F0493422503121A8FEF7C7
:1047300047F894F83C01012803D194F818010128A6
:1047400018D00421E94A002040F2FF7892F900E0F5
:10475000E74A4FF6FF77137870450DD1DFF894C321
:1047600000222CF810200CF1180222F810801832C8
:1047700013540FE00921E5E7DE4ADFF878C322F899
:1047800010700CF1180C00222CF810200CF1180CF1
:104790000CF80020401CC0B28842DDD3D648007817
:1047A00001280ED111F05EFC48F230400090F02359
:1047B0004FF4A072D621002011F0E4FD092018F07A
:1047C00003FF94F84C00012800D00020804694F8A4
:1047D0004D00012800D00020319094F818010128E4
:1047E0000ED001200D9000204FF6FF710090C34FB6
:1047F000CDE901010390787A00287CD0C04BFDE31D
:1048000000200D904FF6FF7130900090BB4FCDE926
:1048100001010390787A08B1B94B01E0B84B6333DA
:1048200010222946484615F01FFB00204FF6FF7165
:104830000090CDE901010390B048407A08B1B1A3DE
:1048400000E0B3A310222946584615F00DFB94F85A
:104850003C01012806D002287ED004287DD0032800
:104860007CD0FCE300204FF6FF710090CDE9010100
:104870000390A248407A08B1A8A300E0AAA305EBE0
:104880008601102248460F9115F0EEFAD4F8400147
:10489000012804D002287DD003287CD0FAE3954873
:1048A00094491830062780888988CDF808800597B4
:1048B000CDE903108F480021303010228078CDE9F7
:1048C0000001D4F81C31A91909EB0A0004F58E7413
:1048D00010912F9018F096FE864803AA183001898F
:1048E00048F23040CDF8088082E8830081480021FA
:1048F0003030007900E0FDE3CDE9000105EB460131
:10490000A368119110222F9818F07CFE794848F284
:104910003041183010228089CDF808800597CDE904
:1049200003107448002130308079CDE9000106EB96
:104930004600411923690E912F9818F063FE6D48C7
:10494000319A183003ABC1881838C088029283E8C6
:1049500083000121674802E0B5E3FCE3FCE330306B
:104960001022C078CDE900010BEB0A006368804695
:10497000109918F047FE5F48319A183048F23041DC
:10498000408905970292CDE903105A480121303041
:10499000407901E014E171E2CDE90001E3684046AD
:1049A0001022119918F02EFE5248319A183048F210
:1049B0003041C08905970292CDE903104D4801218D
:1049C00030301022C079CDE9000163694046A4F57A
:1049D0008E740E9918F016FE09980127584410900D
:1049E00009984FF0000848440E9001E0012F13D8B9
:1049F0004FF6FF71CDF80080CDE9018106FB07502D
:104A000081B21190CDF80C8049A310220E9815F0B8
:104A10002BFA4FF6FF7112E048F23041CDF80080DA
:104A2000CDE9018106FB075081B21190CDF80C80D1
:104A30003FA310220E9815F017FA48F23041CDF836
:104A40000080CDE901811198CDF80C8081B239A3A5
:104A50001022109815F008FA7F1CFFB2032FC5D959
:104A6000032701E0032F68D800214FF6FF72009161
:104A7000CDE90112DFF884800391781E98F80910BF
:104A8000002907EB470101EBC70201D01C4901E0F7
:104A90001B49633100EBD0704010531806FB0050E7
:104AA00081B21022484615F0DFF900204FF6FF7161
:104AB0000090CDE90101039098F80900002807EB68
:104AC000470000EBC70101D00D4801E00C486330FE
:104AD0000B18780806FB00510B331022584615F0CE
:104AE000C3F94FF0000865E0F0EB05089A2C0020B0
:104AF0009B2C0020329B0020932C0020804900201A
:104B0000CDD80508BDD8D6B9CCF5BCFE3A0000001A
:104B10004375742D6F66663A00000000BDD8D6B9A3
:104B2000CAB9C4DC3A000000456E61626C653A00A7
:104B30004120000056200000FFE748F23042CDF847
:104B40000080CDE90182FF49CDF80C80781E497ABA
:104B5000002907EB470101EBC70201D0FA4901E048
:104B6000F949633100EBD0704010531806FB005038
:104B700081B21022484615F077F948F23041CDF85D
:104B80000080CDE90181EF48CDF80C80407A002803
:104B900007EB470000EBC70101D0EB4801E0EA4812
:104BA00063300B18780806FB00510B33102258466F
:104BB00015F05AF9BF1CFFB2092FFFF453AF69E299
:104BC000E249E2481839062780888988CDF80880AC
:104BD0000597CDE90310DD480021183010228078B8
:104BE000CDE90001D4F81C31A91909EB0A002F9175
:104BF00004F58E74119018F005FDD449D348183986
:104C000000890A89CDF808800597CDE90320CF48AF
:104C10000021183010220079CDE9000105EB460192
:104C2000A3680E91119818F0EDFCC84803AA818979
:104C300048F23040CDF8088082E88300C348002164
:104C4000183010228079CDE9000106EB46004119A9
:104C500023691091119818F0D5FCBC49BB4818394C
:104C6000319AC088C98805970292CDE90310B748E8
:104C7000012118301022C078CDE900010BEB0A00A9
:104C8000636880462F9918F0BDFCB049AF481839C9
:104C9000319A4089498905970292CDE90310AB48C2
:104CA0000121183010224079CDE90001E368404627
:104CB0000E9918F0A7FCA548319A48F23041C089F6
:104CC00005970292CDE90310A04801211830102267
:104CD000C079CDE9000163694046A4F58E7410994E
:104CE00018F090FC099801275844109009984FF04B
:104CF000000848440E9001E0022F14D84FF6FF71CF
:104D0000CDF80080CDE9018106FB075081B2CDF8D6
:104D10000C801190AFF2E81310220E9815F0A4F851
:104D20004FF6FF7113E048F23041CDF80080CDE935
:104D3000018106FB075081B2CDF80C801190AFF2D3
:104D4000102310220E9815F08FF848F23041CDF85C
:104D50000080CDE901811198CDF80C8081B2AFF2CD
:104D60002C231022109815F07FF87F1CFFB2032F20
:104D7000C2D9032701E0052F3DD800214FF6FF7867
:104D80000091CDE9011803916E49781E497A0029F6
:104D900007EB470101EBC70201D06B4901E06A490B
:104DA000633100EBD0704010531806FB005081B205
:104DB0001022484615F058F800200090CDE901086F
:104DC000DFF88081039098F80900002807EB47007E
:104DD00000EBC70101D05C4801E05B4863300B1871
:104DE000780806FB00510B331022584615F03CF8AA
:104DF0004FF000083CE048F23042CDF80080CDE9A9
:104E000001825049CDF80C80781E497A002907EBC1
:104E1000470101EBC70201D04B4901E04A49633128
:104E200000EBD0704010531806FB005081B21022E6
:104E3000484615F019F848F23041CDF80080CDE928
:104E400001814048CDF80C80407A002807EB4700EC
:104E500000EBC70101D03C4801E03B4863300B1830
:104E6000780806FB00510B331022584614F0FCFF63
:104E7000BF1CFFB2092FFFF47EAF0BE1334933486B
:104E80001839062780888988CDF808800597CDE9EC
:104E900003102E480021183010228078CDE900013F
:104EA000D4F81C31A91909EB0A0004F58E7410918D
:104EB0002F9018F0A7FB254803AB02891838018909
:104EC000CDF8088083E886002049002018311022A0
:104ED0000979CDE9001005EB4601A3680E912F98E2
:104EE00018F090FB194803A9828918388089CDF8F9
:104EF000088081E88500154800211830102280794B
:104F0000CDE9000106EB46004119236911912F9864
:104F100018F078FB0D48319903ABC2881838C08867
:104F2000029183E885000948012118301022C078D9
:104F3000CDE900010BEB0A0063688046109918F078
:104F400061FB05E080490020CDD805084A9B002080
:104F5000FE484189183842893198CDE90417CDE9D6
:104F60000202FA490120183110224979CDE90010D6
:104F7000E36840460E9918F045FBF449F3481839A8
:104F8000319AC089C98905970292CDE90310EF488B
:104F9000012118301022C079CDE900016369404633
:104FA000A4F58E74119918F02DFB09980127584427
:104FB000109009984FF0000848440E904FF6FF718A
:104FC000CDF80080CDE9018106FB075081B2CDF814
:104FD0000C801190AFF2A84310220E9814F044FFF9
:104FE0004FF6FF71CDF80080CDE901811198CDF821
:104FF0000C8081B2AFF2C443102200E0F5E11098BA
:1050000014F032FF7F1CFFB2032FD7D903274FF6CE
:10501000FF72CDF80080CDE90182CD49CDF80C803A
:10502000781E497A002907EB470101EBC70201D03E
:10503000C84901E0C749633100EBD07040105318F4
:1050400006FB005081B21022484614F00DFF4FF6C7
:10505000FF71CDF80080CDE90181BD4800E065E237
:10506000CDF80C80407A002807EB470000EBC70121
:1050700001D0B84801E0B74863300B18780806FB48
:1050800000510B331022584614F0EEFEBF1CFFB245
:10509000092FBCD3AD49AD4A183902AF0223128A99
:1050A000098A002087E80F00A84803211830102241
:1050B000007ACDE90001D4F8403109EB0A000F99DC
:1050C00018F0A0FA32E2012030900BEB0A00A91987
:1050D000002700F12D020B9001F1100300970E91B3
:1050E000283011F04FF94FF6FF710097CDE90171AB
:1050F000039700E078E1964F787A08B196A300E034
:1051000098A3102248460E9914F0AEFE00204FF6E8
:10511000FF710090CDE901010390787A08B194A362
:1051200000E096A3102258460E9914F09DFE874F7A
:105130000621183F8548BA888088CDE90282CDE9EA
:10514000040107F130014FF000088978CDE900181B
:10515000D4F8443101E02DE0A2E009EB0A0010226E
:105160000E9918F04FFA7948FA880521C088CDE9E0
:105170000282CDE9040107F130000321C078CDE9B6
:105180000001D4F8483110220E990B9818F03AFA21
:105190004FF6FF77CDF80080CDE90187099ACDF869
:1051A0000C8009EB0200AFF2786310220E9914F024
:1051B0005BFE41E2022030906449644818390627BA
:1051C00080888988CDE90407CDE902815F494FF0E5
:1051D0000008183109EB0A008978CDE90018A919EF
:1051E000D4F844310E9110220F9118F00BFA574960
:1051F000564818390122C088C98805970292CDE91E
:1052000003105248022118301022C078CDE9000165
:10521000D4F850310BEB0A000F9918F0F3F94FF660
:10522000FF77CDF80080CDE90187099ACDF80C8091
:1052300009EB0200AFF2087310220F9914F014FE6C
:10524000CDF80080CDE90187099ACDF80C800BEBF1
:1052500002004DA310220F9914F006FECDF8008035
:10526000CDE90187CDF80C80DFF8E48098F80900DB
:1052700008B139A300E03BA3102248460E9914F070
:10528000F3FD00200090CDE90107039098F8090094
:1052900008B13EA300E040A3102258460E9943E116
:1052A00003203090294929481839062780888988A1
:1052B000CDE90407CDE9028124494FF000081831F7
:1052C00009EB0A008978CDE90018A919D4F844310E
:1052D0000E9110220F9118F095F91C491B481839AE
:1052E0000122C088C98805970292CDE903101748AA
:1052F000022118301022C078CDE90001D4F84C31D9
:105300000BEB0A000F9918F07DF94FF6FF77CDF8F7
:105310000080CDE90187099ACDF80C8009EB0200E5
:10532000AFF2F47310220F9914F09EFDCDF80080B7
:10533000CDE90187099ACDF80C800BEB020019A387
:1053400010220F9914F090FD2EE000004A9B0020DF
:1053500080490020CDD80508B7C5B5E7B5E7C1F746
:105360003A2000004469736368617220493A000082
:10537000BDD8D6B9CAB1BCE43A2000004375742D3B
:105380006F666620543A000041480000BDD8D6B987
:10539000C8DDC1BF3A2000004375742D6F666620DA
:1053A000433A000057480000CDF80080CDE901875E
:1053B000CDF80C80DFF81C8498F8090010B1AFF22A
:1053C000680301E0AFF26403102248460E9914F01E
:1053D0004BFD00200090CDE90107039098F80900EB
:1053E00000287DD0FCA357E7FE4B102229464846F3
:1053F00014F03AFD00204FF6FF710090CDE9010155
:105400000390F448407A10B1AFF6081301E0AFF60C
:10541000001310222946584614F026FD94F83C014A
:10542000012806D002287BD004287AD0032879D01E
:105430007CE000204FF6FF7130900090E54FCDE901
:1054400001010390787A10B1E64B633B00E0E54B35
:10545000A9190B3388461022484614F005FD002098
:105460004FF6FF710090CDE901010390787A10B1F9
:10547000DC4B633B00E0DB4B4146163310225846C1
:1054800014F0F2FCD849D848183906278088898852
:10549000002205970292CDE90310D348022118306B
:1054A00010228078CDE90001414609EB0A00D4F8CA
:1054B000343118F0A7F8CC49CB481839319AC08854
:1054C000C98805970292CDE90310C7480121183019
:1054D0001022C078CDE9000141460BEB0A0000E044
:1054E000ACE1D4F8383118F08DF800201021CDE966
:1054F0000001099A029009EB02004FF6FF7741463E
:1055000000233A4618F044FB00200090CDE9010743
:10551000099A039041460BEB0200AFF6E81302E054
:1055200019E097E00BE1102214F09EFCAE48AE4962
:105530000027183900880988DFF89882CDE9021021
:105540000097019798F8090000280D987ED000EB8D
:10555000800032A977E1012030900BEB0A00A919F5
:10556000002700F12D020B9001F1100300970E911E
:10557000283010F007FF4FF6FF710097CDE9017159
:105580000397944F787A08B198A300E09AA3102269
:1055900048460E9914F068FC00204FF6FF71009009
:1055A000CDE901010390787A10B1AFF23C2301E01C
:1055B000AFF23823102258460E9914F055FC8A4950
:1055C00089481839062280888B88CDE90402CDE904
:1055D000028301F130074FF00008B978CDE90018D7
:1055E000D4F8343109EB0A0010220E9918F00AF8A9
:1055F0007D48A7F130020521D288C088CDE902821A
:10560000CDE904010321F878CDE90001D4F848314F
:1056100010220E990B9817F0F5FF1021CDE90081AB
:10562000099A4FF6FF7709EB0200CDF808800023B6
:105630003A460E9918F0ACFACDF80080CDE9018712
:10564000099ACDF80C800BEB020000E0F8E06DA3A6
:105650000E9964E70220309000204FF6FF71009011
:105660005C4FCDE901010390787A08B15FA300E0B7
:1056700061A3A919102248460B9114F0F5FB0020F4
:105680004FF6FF710090CDE901010390787A10B1D7
:10569000AFF2083301E0AFF20033102258460B9905
:1056A00014F0E2FB50495048183906278088898851
:1056B000CDE90407CDE902814B494FF000081831CC
:1056C00009EB0A008978CDE90018D4F834311022AA
:1056D0000B9917F097FF4449434818390122C088B5
:1056E000C98805970292CDE903103F48022118307E
:1056F0001022C078CDE90001D4F850310BEB0A003C
:105700000B9917F07FFF1021CDE90081099A4FF620
:10571000FF7709EB0200CDF8088000233A460B9989
:1057200018F036FACDF80080CDE90187099ACDF856
:105730000C800BEB0200AFF2B0330B99EFE60320C5
:105740003090294928481839062780888988CDE96A
:105750000407CDE9028124494FF00008183109EB14
:105760000A008978CDE90018A919D4F834310E91CE
:1057700010220F9117F046FF1B491B4818390122D0
:10578000C088C98805970292CDE903101648022106
:1057900018301022C078CDE90001D4F84C310BEB61
:1057A0000A000F9917F02EFF1021CDE90081099A08
:1057B0004FF6FF7709EB0200CDF8088000233A4648
:1057C0000F9918F0E5F9CDF80080CDE90187CDF803
:1057D0000C8019E080490020BDD8D6B9C4DCC1BF17
:1057E0003A20000030D905084A9B0020B7C5B5E72C
:1057F000B5E7D7E83A200000446973636861722016
:10580000523A000053200000099A0BEB0200AFF25D
:105810006C4310220F9914F027FBCDF80080CDE9DE
:105820000187CDF80C80DFF80C8298F8090010B1E0
:10583000AFF24803C8E5AFF24003C5E57EA32BE510
:1058400000EB400035A9431809EB0A001022294655
:105850000D9014F009FB7B487A4918394088498833
:10586000CDE902100097019798F8090000283098B8
:1058700003D0C0EB001012A904E000EB800101EBA3
:10588000C00021A943180BEB0A00102229460C90F6
:1058900014F0EAFA94F83C01012803D194F81801B5
:1058A00001287DD0009701970297039798F8090087
:1058B00010B1AFF6985301E0AFF6945305EB8601B3
:1058C000102248460F9114F0CFFA0620DFF874A199
:1058D000CDE904700AF1180A029703979AF80400B8
:1058E000CDE9000705EB4601D4F8243188461022A3
:1058F00004F592740D9817F085FE0620CDE904702A
:10590000029703979AF80600CDE9000706EB4600D8
:105910000544A368102229460D9817F073FE06204F
:10592000CDE904700297039701269AF80500CDE9A6
:1059300000064146636810220C9817F063FE0620AB
:10594000CDE90470029703979AF80700CDE90006A5
:105950002946E36810220C9817F054FE0220CDE986
:1059600004700297039703219AF80800CDE900011B
:10597000E36910220F990D9817F044FE00970197E4
:105980000297414630A310224846039714F06CFA60
:1059900000970197029741462BA31022584600E03A
:1059A00044E0039714F060FA0097019702972946A4
:1059B00025A310224846039714F056FA0097019742
:1059C0000297294620A310225846039714F04CFA58
:1059D000099A009709EB020601970297414603973F
:1059E0001CA31022304614F03FFA099A00970BEBE3
:1059F0000204019702974146039716A310222046FE
:105A000014F032FA0097019702972946304611A305
:105A10001022039714F028FA00970197029729465D
:105A200020460CA31022039714F01EFA39B0BDE8EB
:105A3000F08F0000804900204375742D6F6666204A
:105A4000453A00004A9B00202020202020202020D2
:105A500020200000200000002DE9F05FDF4EDFF87D
:105A600080A300252DED028B0124F078B1780AF196
:105A70008009884207D00B20F0701EF075F98AF873
:105A80004E5089F86C40307801281BD071788142E3
:105A900014D0D9F87000C6F848014F46C9F87050C4
:105AA0001EF062F98AF84E50504687F86C408AF82A
:105AB0005C5020F83C5FC580CAF85850BDEC028BA2
:105AC000BDE8F09F707801280ED0D6F84811C9F8CB
:105AD000701074708AF84E409FEDC20A86ED550A28
:105AE00086ED560AC6F82455B04696F81801DFF838
:105AF000F8B29FEDBE8ABE4FBE4E01280AD0414685
:105B00000228DBD1084698F83C1101297ED00229F1
:105B10007DD026E198F83C01012819D0022877D0E1
:105B2000032876D00428C9D1D8F84401C8F8040065
:105B300000F0B0FB98ED550A60EE080A98ED540AA3
:105B4000B8EE400AF4EEC00AF1EE10FA47DA3AE194
:105B500099F86C0001280ED0022843D00328ADD15B
:105B6000D8F82C11C8F8041000F094FB9BF8000042
:105B700002286FD072E0D8F81C11C8F8041000F0A9
:105B800089FB9BF800000221022803D19A48007883
:105B9000022805D096ED400A404660EE080A0EE065
:105BA000D8F83C2096ED450A404632B1934AD6EDEE
:105BB000440A92ED001A00EE810A60EE080A90EDA8
:105BC000480AB8EE400AF4EEC00AF1EE10FA05D821
:105BD000D0F84021012A02D089F86C10F3E088F84F
:105BE0000050EEE0D8F82411C8F8041000F052FB81
:105BF0009BF800000321022803D17F480078022887
:105C00000AD096ED400A60EE080A03E066E095E0EF
:105C100043E056E040460EE0D8F83C2096ED450AB9
:105C2000404632B1754AD6ED440A92ED001A00EEB4
:105C3000810A60EE080A90ED4A0AB8EE400AF4EED6
:105C4000C00AF1EE10FA27D8D0F84021022AC3D1B9
:105C5000C5E7FFE768480078022805D096ED400ABE
:105C6000404660EE080A0EE0D8F83C1096ED450A72
:105C7000404631B16149D6ED440A91ED001A00EE7B
:105C8000810A60EE080A90ED4C0AB8EE400AF4EE84
:105C9000C00AF1EE10FAA2D995E08AF85C40D9F872
:105CA0007010DAF8580001EB4102C2EBC111B0EB01
:105CB000C10F94D2D8F84401C8F8040000F0EAFA01
:105CC00081E0D8F84401C8F8040000F0E3FA98ED48
:105CD000560A60EE080A98ED530A31E7D0F83411FD
:105CE000C8F80C1000F04AFD9BF80000022803D110
:105CF00041480078022805D096ED400A404660EE03
:105D0000080A0EE0D8F83C1096ED450A404631B13D
:105D10003A49D6ED440A91ED001A00EE810A60EE90
:105D2000080A90ED4E0AB8EE400AF4EEC00AF1EE11
:105D300010FA16D888F800503C7012E08AF85C40DF
:105D4000D9F87020DAF8581002EB4203C3EBC21204
:105D5000B1EBC20FADD2D0F83411C8F80C1000F07E
:105D60000DFD98F83C014646032813D1D6F83401BE
:105D7000F06000F003FD96ED560A60EE080A96ED1D
:105D8000530AB8EE400AF4EEC00AF1EE10FA01DB55
:105D900035703C7096F83C01042814D1D6F83401D3
:105DA000F06000F0EBFC96ED550A60EE080A96ED07
:105DB000540AB8EE400AF4EEC00AF1EE10FA02DB23
:105DC00035703C7004E098F8000000287FF476AE4F
:105DD00021F036FAC8F8284570E60000FC370020AC
:105DE0004C000020000000000100002000007A4468
:105DF000932C0020FC3B0020020000203C000020EF
:105E000010B504466CB90E488079012816D14FF4BC
:105E1000FA7200210B4835F00EFD64200A49088013
:105E20000CE00748C079012808D14FF4FA7200212C
:105E3000044835F000FD64200349088010BD0000CF
:105E400080490020003401407800002000B587B070
:105E500040F20D6031F0C2FB214835F02DFD1520D8
:105E6000ADF800000020ADF80200ADF804004FF4DA
:105E70007A7002900020ADF806008DF80C0069469B
:105E8000174835F09DFD0120ADF810000020ADF859
:105E90001200ADF81400ADF81600ADF81800ADF81A
:105EA0001A0004AA00210E4835F0A2FB4FF4FA7242
:105EB00000210B4835F0BFFC60220021084835F076
:105EC0008DFC00221146064835F0C8FC012104482B
:105ED00035F0D9FD024835F083FB07B000BD000066
:105EE0000034014000BFFEE72DE9F05FB24EDFF85D
:105EF000CC824FF4806B2DED048B4FF0010A06F13C
:105F0000800996F84F00A8F65824002528B186F895
:105F10004F50A078082874D03FE12078A84F9FED1B
:105F2000A98A01286ED1606C36F069FB9FEDA61B33
:105F300053EC112B36F0A2F941EC190BD7F8000104
:105F400036F0D6FD53EC192B36F0A6FC5AD897ED57
:105F5000400AB5EEC00AF1EE10FA53DD99F854008C
:105F60004F4628BB87F855A087F854A05946984853
:105F700030F0ECFD96F82900022802D001280FD05D
:105F800022E088F80C5094ED020A0120F8EE400A55
:105F900080EE880A84ED0D0A00F06EFDB58213E0F4
:105FA000B582864994F84C001831012801D020B1FF
:105FB0000AE091EC020A088904E0888AD1ED040A1B
:105FC00091ED030A1EF068F898F80C00414601288C
:105FD00001D050B135E0C889D1ED040A98ED010A2D
:105FE0001EF040F884ED0D0A2BE0A078042810D0B4
:105FF000072808D001280CD003280AD00C2808D084
:106000000DE073E04AE094F87D00012801D00328F8
:1060100005D12078012802D16E4981F800A096F8B8
:106020002900012802D0022803D00AE094ED010AD9
:1060300001E094ED020AB8EE400AC0EE080AC4ED91
:106040000D0A97F8550000284CD0B08A002849D195
:10605000A078012802D0042814D017E094ED010A9A
:10606000F8EE400A80EE881AD4ED0D0AB4EEE01A7C
:10607000F1EE10FA0AD2B8EE400AC0EE080AC4EDFA
:106080000D0A03E09FED540A84ED0D0A94ED0D0A0C
:10609000BDEC048BBDE8F05F06F088B8207880B1D5
:1060A00094ED120AB8EE400AC0EE080A97ED450AD0
:1060B000F4EEC00AF1EE10FA03DC96F84F00012866
:1060C00010D189F854505946414830F03DFDBFEE9B
:1060D000000A06F06BF8A8F81450B58286F86050F4
:1060E00086F85F50BDEC048BBDE8F09F94F85C012E
:1060F000D4F8601188424BD184F85CA194F8640113
:106100005746B0B9354825700078022805D1344883
:106110000078022801D189F84D700C201EF0F6F8A5
:1061200030490C20304A0870304908781754401C18
:106130000870D4F860010021C4F88002C1EBC100EE
:1061400004EB800090F8682180F88422D0F86C215C
:10615000C0F88822D0F87821C0F89422D0F87C21A9
:10616000C0F89822D0F87021C0F88C2290F87421E1
:1061700080F8902290F8802180F89C2294F8642185
:106180000AB980F88051491CC9B20A29D6D304E063
:10619000401C84F85C01A6F8465089F854505946D2
:1061A0000B4830F0D1FCBFEE000A05F0FFFFA8F865
:1061B0001450B58296E700004C00002054420020A5
:1061C000FC3B002000007A440000000000408F40AB
:1061D000000C0140582C00200000000001000020AD
:1061E00002000020CC350020709A0020B12C002045
:1061F00010B5244CE078A178884203D00520E070E7
:106200001DF0B2FD6169206F814200D96061A16912
:10621000606F814200D9A06120786178012805D0A3
:1062200081422DD0BDE810401DF09EBD0120012906
:1062300000D06070A178052903D1616A6160A16A0C
:10624000A160114991F82920022A15D094ED020A83
:106250009FED0E1A0E4AF8EE400A80EE810AD2ED4A
:10626000450AB4EEE00AF1EE10FA03D2BDE81040A0
:1062700000F010B881F84F00BDE8104000F058BBA6
:1062800010BD0000FC3700204C00002000007A44C4
:10629000FC3B00202DE9F05F874C01262DED048B9F
:1062A000E078A178884202D0E6701DF05DFD20788C
:1062B0000025DFF808A2824FDFF808924FF0030BA9
:1062C00001284AD08AF8005089F8565061788142F6
:1062D00004D0A07801287CD11DF046FDA0780128CB
:1062E00077D179480078002873D19AF80000012806
:1062F0006FD1207801286CD197ED400ADFED730A49
:1063000094F84D10724B20EE200A33F81110714BA7
:10631000BDEEC00A10EE100A884211DA97ED3F1A5E
:106320006B4F94F84C1061EE200A3F1D37F81110A6
:10633000FDEEE00A10EE900A884201DA187B20B1E7
:1063400010EE100AA16C884275D210EE100AA16CF2
:10635000884271D289F856B092E06078012800D066
:1063600066709AF800205C494AB9A078012806D1E5
:1063700008780A2803D0072801D060696060514876
:10638000803890F82930012B01D080F829608046B0
:1063900090F85F0058B10128A0D108780A2803D0EE
:1063A000072801D0002A99D1FFF79EFD96E7606883
:1063B00036F025F99FED499B53EC192B35F05EFF24
:1063C00041EC180BD7F8140136F092FB53EC182B64
:1063D00000E051E036F062F935F062FE08EE100A96
:1063E00098F82800012828D0042826D0A06F36F07D
:1063F00006F953EC192B35F041FF9FED3A1B53EC96
:10640000112B35F07FFE35F04BFE00EE100A00BF79
:10641000B4EEC08AF1EE10FA12D298F8601040463D
:10642000491CC9B288F860100329BFD380F85F60A7
:1064300088F8605052E733E017E09FED2C0AE7E759
:10644000E0780328E9D084F820B54FF4806128482B
:1064500030F07AFB4FF40061254830F075FB257071
:1064600088F8605088F85F5038E799F8560003289C
:1064700006D2401C89F85600BDEC048BBDE8F09FA5
:106480001E738AF800502570FFF72EFD26704FF41A
:106490008061BDEC048BBDE8F05F154830F054BB63
:1064A00089F856504FF48061BDEC048BBDE8F05F75
:1064B0000F4830F04BBB0000FC370020582C002068
:1064C000FC3B0020CC0000200000002000007A44AB
:1064D00054950508544200209C2C00200000000028
:1064E00000408F4000000000000024400000CD4329
:1064F000000C01402DE9F05F6D4C4FF0030AE0788D
:10650000A178884203D084F803A01DF02DFC2078E8
:106510000026DFF8A091684D684F4FF00108012870
:1065200053D089F80060A5F85A6085F85C606178FE
:10653000814204D0A07803287BD11DF015FCA078FF
:10654000032876D15E480078012872D15D48007832
:1065500000287FD199F80010484601297AD1217886
:10656000012977D197ED400ADFED570A94F84D10D5
:10657000564B20EE200ADFF85CB133F81130544955
:10658000BDEEC00A4FF4806910EE102A9A420FDA6D
:1065900097ED3F1A4D4F94F84C3061EE200A3F1DA5
:1065A00037F81330FDEEE00A10EE902A9A4204DB31
:1065B00010EE102AA36C9A4260D210EE102AA36C3F
:1065C0009A4240D2A5F85AA046E06078012801D04E
:1065D00084F80180A078032801D1206A206199F80D
:1065E00000000028ABD13C480078022822D13B486B
:1065F000007802281ED1E06BE0B1394897ED450ADA
:10660000D7ED440A90ED001A00EE810AD4ED040A99
:10661000F8EE600A80EE801ABCEEC10A84ED010A31
:1066200010EE101A206D814200D96060FFF732FE33
:1066300085E70FE094ED040AD7ED450AB8EE400A6D
:1066400080EE201AE8E7B5F85A20032A04D2521C3B
:10665000A5F85A20BDE8F09F25F85A6F474685F8FF
:10666000028081F80C8006702670FFF73DFC2770D1
:1066700049465846BDE8F05F30F066BA95F85C20B0
:10668000012AE7D1B5F85A20142AE0D325F85A6F29
:10669000AE7081F80C80067045462670FFF724FC2A
:1066A000257049465846BDE8F05F30F04FBA00000B
:1066B000FC370020582C0020CC000020FC3B0020A0
:1066C000CC3500200000002000007A4454950508D5
:1066D00054420020000C0140010000200200002074
:1066E0003C00002010B5214CE078A178884203D00E
:1066F0000620E0701DF038FBA169606F814200D96F
:10670000A06120786178012805D081422DD0BDE8B4
:1067100010401DF029BB0120012900D06070A17834
:10672000062903D1E16AE160216BA160104991F86B
:106730002920022A15D094ED020A9FED0E1A0E4A66
:10674000F8EE400A80EE810AD2ED450AB4EEE00A86
:10675000F1EE10FA03D2BDE8104000F00FB881F856
:106760004F00BDE8104000F0E3B810BDFC3700203A
:106770004C00002000007A44FC3B00202DE9F0474B
:106780005D4CE078A178884203D00420E0701DF0D1
:10679000EBFA20780027DFF86481594E594D4FF00D
:1067A0000109012850D088F80070A6F85870617867
:1067B000814204D0A078042879D11DF0D5FAA078C0
:1067C00004287FD15048007801287BD14F480078B9
:1067D000002877D198F800004146012872D120782E
:1067E00001286FD195ED400ADFED490A94F84D205C
:1067F000484B20EE200ADFF820A133F812204FF496
:106800008068BDEEC00A10EE100A90420EDA95EDD7
:106810003F1A94F84C201B1D61EE200A33F8122019
:10682000FDEEE00A10EE900A904204DB10EE100A32
:10683000A26C904257D210EE100AA26C90423AD24B
:106840000320A6F858003FE06078012801D084F8C2
:106850000190A078042801D1E069E06098F8000078
:106860000028ACD12D489FED2E0A007802281FD1B8
:106870002C48007802281BD1E06BC8B12A48D5ED1E
:10688000450A95ED441AD0ED001A41EE210A00BFE9
:1068900060EE800A94ED030AB8EE400A80EE801A9A
:1068A000BCEEC10A84ED010AFFF7F4FC87E709E0BA
:1068B000D5ED450AECE7B6F85800032804D2401C91
:1068C000A6F85800BDE8F08718484D4680F80C90AF
:1068D0000F702770FFF708FB257041465046BDE852
:1068E000F04730F031B9A6F8587041465046BDE83F
:1068F000F04730F02BB90000FC370020582C002066
:10690000CC000020FC3B0020CC3500200000002003
:1069100000007A4454950508000C01400100002055
:1069200000247449020000203C0000205442002052
:106930002DE9F047474C4FF00208E078A1788842F3
:1069400003D084F803801DF00FFA20780127002679
:10695000DFF80491414D012848D089F8006085F89E
:1069600057606178814204D0A078022859D11DF087
:10697000FBF9A078022854D139480078002850D17A
:10698000207801284DD13748DFED370A94F84D20A3
:1069900090ED400A354BDFF8D8A020EE200A33F8FE
:1069A00012204FF48068BDEEC00A10EE101A91421A
:1069B0000EDA90ED3F1A94F84C101A1D61EE200A81
:1069C00032F81110FDEEE00A10EE900A884204DB66
:1069D00010EE100AA16C884233D210EE100AA16C9E
:1069E000884217D2032085F857001CE06078012800
:1069F00000D06770A078022801D1A069A060174874
:106A0000803890F82910022901D080F82980FFF7FA
:106A10006BFAAEE795F85700032804D2401C85F8BE
:106A20005700BDE8F0871348077389F800602670A7
:106A3000FFF75AFA277041465046BDE8F04730F05C
:106A400083B885F8576041465046BDE8F04730F0BE
:106A50007DB80000FC370020582C0020CC0000201E
:106A600000000020FC3B002000007A4454950508FB
:106A7000000C01405442002000EE900AB0EE401A93
:106A800010B5F8EE600A81EE200AB5EEC00AF1EE0C
:106A900010FA03D005F08AFB012010BD002010BDC4
:106AA0002DE9F05F2DED028B00260027B046B146A0
:106AB00000240025A2464FF4807B402008EE100AF7
:106AC000254D02220021254820F012FE10B1DA46A1
:106AD0004FF4007B544610E035F814000744601C66
:106AE00035F810000644A01C35F810008144E01C65
:106AF00035F810008044201D84B25C45ECDB00EECC
:106B0000106AB8EE400AF8EE480A80EE201A1448DF
:106B100080ED001A00EE107AB8EE400AF8EE480A4E
:106B200080EE201A0F4880ED001A00EE108AB8EEB1
:106B3000400AF8EE480A80EE201A0B4880ED001A51
:106B40009FED0A0A0A4880ED000A1BF0B9FBBDEC74
:106B5000028BBDE8F09F0000988B002000000240EF
:106B6000642C0020682C00205C2C002000F07F4565
:106B7000602C002070B500240025504890ED000ADC
:106B8000DFED4F0A60EE200A9FED4E1A80EE810A7B
:106B9000DFED4D0A20EE200ABDEEC00AB8EEC01AA5
:106BA000D0ED000ADFED461A60EEA10ADFED451ACE
:106BB00080EEA12ADFED420A30EEC20AF0EEC00AF2
:106BC00081EE200ABDEEC00A404880ED000A404830
:106BD00090ED000ADFED3A0A60EE200A9FED391AC7
:106BE00080EE810ADFED380A20EE200ABDEEC00AF1
:106BF000B8EEC01AD0ED000ADFED311A60EEA10A3E
:106C0000DFED301A80EEA12ADFED2D0A30EEC20A48
:106C1000F0EEC00A81EE200ABDEEC00A2D4880EDDC
:106C2000000A2A4800682B490968884202DD294881
:106C3000056801E02548056827480068A84201D298
:106C4000254805682448D0F89001A84202D9224876
:106C5000D0F8905100240FE01F4850F82400A842BB
:106C600008D31D49601C51F82000A84202D8601CBE
:106C70001A490870601CC4B2642CEDDB1848007817
:106C8000022819D117480078012815D11648007834
:106C900018B9042115481EF02FFF10480078144938
:106CA0000978884204DB0D4800780C49087003E03D
:106CB0000F4800780949087070BD00005C2C002066
:106CC000333353400000804500401C4650010020F3
:106CD000602C002054010020680100205801002091
:106CE0000100002002000020FC3100205B01002098
:106CF0005A01002070B52DED028BDAB004464FF436
:106D000080711AA8FBF7B0FD642101A8FBF7ACFD68
:106D10000722FDA12046FBF7B7FC08BBFC4803781F
:106D2000FC480278FCA1FE48FBF7B4FAFD48007865
:106D3000012808D1FA48FBF77EFCC6B23146F84874
:106D40001FF082FB65E2F74800780228FAD1F44888
:106D5000FBF771FCC6B23146F1481FF089FAF1E742
:106D60000722F1A12046FBF78FFC20BBE8480378FF
:106D7000E8480278E8A1EA48FBF78CFA0120EC49E0
:106D80000870E8480078012808D1E548FBF753FC73
:106D9000C6B23146E2481FF057FBD3E7E14800781E
:106DA0000228CFD1DE48FBF746FCC6B23146DC48AC
:106DB0001FF05EFAC6E70422DEA12046FBF764FC62
:106DC00088B9DE480078012802D00020DC4908702C
:106DD0000020DB4908700220DA4988701CF0C4FFEB
:106DE0001FF046F9AEE70422D7A12046FBF74CFC82
:106DF00050B90020D24908700120D24988701CF097
:106E0000B3FF1FF035F99DE70422D1A12046FBF71F
:106E10003BFC002879D11CF0A7FFCF48007890B93F
:106E20000120CD490870C5480078012802D0002013
:106E3000C349087000201DF03FF800201CF0A8FF97
:106E40000020C6490870BF48807802285ED1C44837
:106E5000BB49097800EBC10090ED001BB0EE410A80
:106E6000F0EE610A9FEDBF1B53EC112B51EC100BA0
:106E700035F014FC41EC180B35F094FBB1498861F6
:106E8000AF480078032807DB084690F84D0058B952
:106E900001201DF011F807E0AA4890F84D000128E4
:106EA00002D100201DF008F8AD48A549097800EB93
:106EB000C10090ED001BB0EE410AF0EE610A53EC08
:106EC000102BAAA101A8FBF7E5F94FF480729449B1
:106ED00001A818F057FB93480078012808D1904882
:106EE000FBF7A9FBC6B231468D481FF0ADFAE8E3C7
:106EF0008C480078022886D18948FBF79CFBC6B2F3
:106F0000314687481FF0B4F9DBE361E08D488078B3
:106F10000128ECD198488A49097800EBC10090ED2E
:106F2000001BB0EE410AF0EE610A9FED8E1B53ECA0
:106F3000112B51EC100B35F0B1FB41EC180B35F077
:106F400031FB804948617E480078032807DB08460A
:106F500090F84C0058B901201CF01AFF07E079485E
:106F600090F84C00012802D100201CF011FF82484B
:106F70007349097800EBC10090ED001BB0EE410AA7
:106F8000F0EE610A53EC102B78A101A8FBF782F90F
:106F90004FF48072624901A818F0F4FA6148007851
:106FA000012808D15E48FBF746FBC6B231465C4873
:106FB0001FF04AFA85E35B480078022897D15848C9
:106FC000FBF739FBC6B2314655481FF051F978E35B
:106FD00004226AA12046FBF757FB002867D15948D5
:106FE000807802282FD1674890ED400A10EE101AE1
:106FF000084635F07DFD41EC180B53EC182B62A1CF
:1070000001A8FBF747F94FF48072454901A818F031
:10701000B9FA44480078012808D14148FBF70BFB36
:10702000C6B231463E481FF00FFA4AE33D480078A9
:107030000228BFD13A48FBF7FEFAC6B231463848BB
:107040001FF016F93DE33F4880780128B2D14D4842
:1070500090ED3F0A10EE101A084635F049FD41EC5C
:10706000180B53EC182B48A101A8FBF713F94FF4A8
:1070700080722B4901A818F085FA2A480078012867
:1070800008D12748FBF7D7FAC6B2314624481FF08B
:10709000DBF916E32348007802288BD12048FBF760
:1070A000CAFAC6B231461E481FF0E2F809E30422CC
:1070B00038A12046FBF7E8FA002875D1251D37488E
:1070C0000078A0F1080229461AA8FBF7F4FB1D4836
:1070D0008078022869D11A4800780628A5DA1AA80B
:1070E0001FF05AFE2E481649097800EBC10080EDCA
:1070F000000B244890ED400A10EE101A084635F0B7
:10710000F7FC284A0E4B51E04353544143484F008B
:10711000452C0020442C00205225632563000000EC
:10712000A84500200200002043535445584954000C
:107130004C2C0020434F4256000000004A2C0020F7
:10714000462C0020FC370020434F4249000000003D
:10715000435153540000000000000020492C00203F
:10716000E02B00200000000000408F4043525354A9
:10717000252E336600000000102C002043514D5393
:1071800000000000FC3B002043524D53252E346686
:10719000000000004357524C000000002003002074
:1071A000B0890020E089002052E1A0E01B7802EBCA
:1071B000C30203C2F9480078401CF84908701CF06B
:1071C000D3FDF648007806280ADAF548007870B34F
:1071D000F448007801282BD1F0480078022827D104
:1071E0000020EE490870F0A101A8FBF753F84FF416
:1071F0008072EF4901A818F0C5F9EE48007801281F
:1072000008D1EB48FBF717FAC6B23146E8481FF041
:107210001BF956E2E74800780228FAD1E448FBF768
:107220000AFAC6B23146E2481FF022F849E2FFE707
:10723000E148DA49097800EBC10090ED001BB0EE9F
:10724000410AF0EE610A1FED391B53EC112B51EC92
:10725000100B35F023FA41EC180B35F0A3F9D749A0
:107260008861CE480078032807DB084690F84D0077
:1072700058B901201CF020FE07E0D04890F84D00DE
:10728000012802D100201CF017FECB48C349097821
:1072900000EBC10090ED001BB0EE410AF0EE610A78
:1072A00053EC102BAFF23C1101A8FAF7F3FF4FF4A7
:1072B0008072BF4901A818F065F9BE48007801281E
:1072C00008D1BB48FBF7B7F9C6B23146B8481FF042
:1072D000BBF8F6E1B748007802289AD1B448FBF72A
:1072E000AAF9C6B23146B2481EF0C2FFE9E1B3487E
:1072F000807801288DD1A9480078062889DA1AA853
:107300001FF04AFDAE48A549097800EBC10080EDA9
:10731000000BAC4890ED3F0A10EE101A084635F00D
:10732000E7FBA94A9D4B1B7802EBC30203C29B48B3
:107330000078401C994908701CF016FD97480078A9
:10734000062826DB00209549087097A101A8FAF7C6
:10735000A1FF4FF48072964901A818F013F99548DF
:107360000078012808D19248FBF765F9C6B231468A
:107370008F481FF069F8A4E18E4800780228A8D150
:107380008B48FBF758F9C6B2314689481EF070FFAA
:1073900097E18E488149097800EBC10090ED001B10
:1073A000B0EE410AF0EE610A1FED921B53EC112B77
:1073B00051EC100B35F072F941EC180B35F0F2F886
:1073C0007E49486175480078032807DB084690F835
:1073D0004C0058B901201CF0DBFC07E0774890F81E
:1073E0004C00012802D100201CF0D2FC77486B49E8
:1073F000097800EBC10090ED001BB0EE410AF0EE01
:10740000610A53EC102BAFF29C2101A8FAF742FF5E
:107410004FF48072664901A818F0B4F86548007806
:10742000012808D16248FBF706F9C6B23146604828
:107430001FF00AF845E15F48007802289BD15C48BC
:10744000FBF7F9F8C6B2314659481EF011FF38E192
:1074500004225FA12046FBF717F900286AD1251DF9
:107460005D480078A0F1080229461AA8FBF723FA24
:107470005AA11AA8FBF74AFA58B900205A490870CD
:1074800018F0B2F9584800781BF038FC1EF0F0FDF7
:1074900017E156A11AA8FBF739FA80B90120524921
:1074A000087018F0A1F9504800781BF027FC5249E9
:1074B00042488167514981651EF0DAFD01E150A122
:1074C0001AA8FBF723FA58B902204749087018F0A8
:1074D0008BF9454800781BF011FC1EF0C9FDF0E067
:1074E0004AA11AA8FBF712FA58B903203E490870BE
:1074F00018F07AF93C4800781BF000FC1EF0B8FD4B
:10750000DFE045A11AA8FBF701FA80B9042036494B
:10751000087018F069F9344800781BF0EFFB364921
:1075200026488167354981651EF0A2FDC9E01EF03D
:1075300069FDC6E004223BA12046FBF7A5F820B96F
:1075400032F08EFC1EF094FDBBE0042237A12046F1
:10755000FBF79AF888B960794E2805D101201749C0
:1075600008701EF085FDACE06079462804D100204B
:10757000124908701EF07CFDA3E004222DA12046D4
:10758000FBF782F848B90020044908700B490870DD
:107590002A4908701EF06CFD93E051E0462C002053
:1075A0004A2C00204B2C002043464E48000000008F
:1075B000A845002002000020E02B0020FC3700201E
:1075C000108A0020FC3B0020408A0020102C002064
:1075D0004357505600000000200300204554353426
:1075E0003230412B00000000740000204554353437
:1075F0003038412B0000000090410600801A060040
:10760000455435343130412B0000000045543534A9
:107610003131412B00000000455435343039412BC5
:10762000000000004353415600000000434F4E4607
:1076300000000000434558540000000000000020F6
:10764000042222A12046FBF71FF828B90020214977
:1076500008701EF00DFD34E004221FA12046FBF748
:1076600013F838B901201E4908701E4908701EF031
:10767000FFFC26E01C488078022822D104221BA1AE
:107680002046FBF701F860B902201A490870012072
:107690001049087002201849087001201CF00CFCE9
:1076A0000FE0042215A12046FAF7EEFF48B90120A9
:1076B000104908700749087000200F4908701CF035
:1076C000FBFB5AB0BDEC028B70BD00004345524736
:1076D000000000004A2C00204357504500000000E5
:1076E00000000020482C0020FC370020435247486F
:1076F000000000004B2C0020462C00204352474C39
:107700000000000070B56548007801287CD1002099
:1077100062490870002523E000241DE0B7EE000A4E
:1077200005EB85005E4901EB8000002101EB44017F
:1077300000EB810080ED000A9FED5A0A05EB850001
:10774000574901EB8000012101EB440100EB81006E
:1077500080ED000A601CC4B2022CDFDB681CC5B2DD
:10776000022DD9DB002523E000241DE0B7EE000A3E
:1077700005EB85004C4901EB8000002101EB440141
:1077800000EB810080ED000A9FED460A05EB8500C5
:10779000454901EB8000012101EB440100EB810030
:1077A00080ED000A601CC4B2022CDFDB681CC5B28D
:1077B000022DD9DB002523E000241DE0B7EE000AEE
:1077C00005EB8500394901EB8000002101EB440104
:1077D00000EB810080ED000A9FED320A05EB850089
:1077E000324901EB8000012101EB440100EB8100F3
:1077F00080ED000A601CC4B2022CDFDB681CC5B23D
:10780000022DD9DB002524E02FE000241DE0B7EE97
:10781000000A05EB8500264901EB8000002101EB01
:10782000440100EB810080ED000A9FED1E0A05EB8C
:1078300085001F4901EB8000012101EB440100EBB1
:10784000810080ED000A601CC4B2022CDFDB681CE2
:10785000C5B2022DD9DB0020164908601649086020
:10786000B3EE050A154880ED090A1548007801288D
:1078700004D100201249087034F050FA1148807881
:10788000012802D0022806D102E0FEF703FD02E043
:10789000FFF74EF800BF00BF70BD00004C2C002069
:1078A000708A002000000000988A0020C08A002012
:1078B000E88A0020502C0020542C0020508B0020FF
:1078C000482C0020FC37002010B502460B46002152
:1078D00002E012F8014B2144181EA3F10104E3B2A7
:1078E000F7D16420B1FBF0F400FB141010BD0000D0
:1078F000FEB50446012943D04FF6FF7748F23046E3
:107900000A25B4FBF5F0C0EB0010732101EB400336
:10791000B4FBF5F005FB1040C0EB0010282101EB93
:107920004002B4FBF5F0C0EB0010562101EB400122
:10793000B4FBF5F005FB1040C0EB00104FF00B0C52
:107940000CEB400000960EF01DFDB4FBF5F0C0EB13
:107950000010582101EB4001B4FBF5F005FB10408D
:10796000C0EB0010132202EB4000074A0025182349
:10797000125D8DE82C0033463A460FF0CBF9FEBD80
:10798000002740F2FF76BBE7E4DB050801B5E2B073
:107990009FEDFD0A8DED5D0A4FF480711DA8FAF789
:1079A00063FF642104A8FAF75FFF62980078432818
:1079B00073D10722F5A16298FAF766FE18BBF54865
:1079C0000378F5480278F5A1F648FAF763FCF64823
:1079D0000078012809D1F348FAF72DFEC0B201461C
:1079E0000390F0481EF030FD79E2EF48007802285D
:1079F000FAD1EC48FAF71FFEC0B201460390E948FD
:107A00001EF036FCF0E70722E8A16298FAF73CFE88
:107A100058BBE0480378E0480278E6A1E148FAF76D
:107A200039FC0120E5490870DF480078012809D1B8
:107A3000DC48FAF700FEC0B201460390D9481EF0B8
:107A400003FDD1E7D84800780228CDD1C20104A9AE
:107A5000D44817F097FD04A8FAF7EDFDC0B201462F
:107A6000039004A81EF004FCBEE70422D4A162988F
:107A7000FAF70AFE90B9D4480078012802D0002015
:107A8000D24908700020D14908700220D04988707E
:107A90001CF06AF91EF0ECFAA6E7FFE30422CDA180
:107AA0006298FAF7F1FD50B90020C849087001202A
:107AB000C74988701CF058F91EF0DAFA94E70422DE
:107AC000C6A16298FAF7E0FD002871D11CF04CF9CC
:107AD000C448007890B90120C2490870BA480078BB
